:100000000C949E000C94C6000C94C6000C94C60080
:100010000C94C6000C94C6000C94C6000C94C60048
:100020000C94C6000C94C6000C94C6000C94C60038
:100030000C94C6000C94C6000C94C6000C94C60028
:100040000C9462040C94C6000C943B070C946D074E
:100050000C94C6000C94C6000C94C6000C94C60008
:100060000C94C6000C94C60008000000BE922449FF
:10007000123EABAAAA2ABECDCCCC4C3E00000080DA
:10008000BEABAAAAAA3E00000000BF000000803F4D
:100090000000000000084178D3BB4387D1133D190D
:1000A0000E3CC3BD4282AD2B3E68EC8276BED98F3A
:1000B000E1A93E4C80EFFFBE01C4FF7F3F0000007E
:1000C000000007634236B79BD8A71A39685618AEA6
:1000D000BAAB558C1D3CB7CC5763BD6DEDFD753E7D
:1000E000F6177231BF000000803F000000080002D8
:1000F00001000003040700000000000000000102EE
:1001000004081020408001020408102001020408A5
:100110001020040404040404040402020202020283
:1001200003030303030300000000250028002B0045
:1001300000000000240027002A009D0711241FBE94
:10014000CFEFD8E0DEBFCDBF11E0A0E0B1E0E2E646
:10015000F8E102C005900D92A43AB107D9F722E068
:10016000A4EAB1E001C01D92A938B207E1F711E09D
:10017000CCE3D1E004C02297FE010E942B0CCA33CD
:10018000D107C9F70E94E1070C942F0C0C940000D2
:1001900040ED57E060E070E08CEA91E00E94C90316
:1001A00020E835E240E050E06CEE71E08CEA91E04E
:1001B0000E94DC038CEA91E00E94C6036FE071E0CC
:1001C0008091DD019091DE010E942E086AE070E0CE
:1001D00080E090E00E94DB0441E060E08CEA91E086
:1001E0000E94470426E040E855E260E070E08CEEB3
:1001F00091E00E94D90661E08BE00E94870561E0F2
:100200008CE00E94870561E08DE00E94870560E038
:100210008BE00E94C00560E08CE00E94C00560E0B9
:100220008DE00E94C00581E00C943E052F923F9224
:100230004F925F926F927F928F929F92AF92BF92F6
:10024000CF92DF92EF92FF920F931F93CF93DF93A2
:10025000CDB7DEB7C654D1400FB6F894DEBF0FBE9F
:10026000CDBF0E94AC04672B682B692B41F40E9420
:10027000AC04623071058105910508F478C08CEA00
:1002800091E00E949C036093A4017093A501809368
:10029000A6019093A7010091A8011091A9012091B6
:1002A000AA013091AB01601771078207930740F4F0
:1002B0006093A8017093A9018093AA019093AB0168
:1002C0000091A8011091A9012091AA013091AB01E0
:1002D0006B017C01C01AD10AE20AF30A9701860178
:1002E0000A3F11052105310508F441C06093A801BA
:1002F0007093A9018093AA019093AB018CEA91E0DD
:100300000E94C60361E271E08091DD019091DE01FF
:100310000E942E0869E271E08091DD019091DE017A
:100320000E942E080E94AC04AB01BC012AE030E020
:100330008091DD019091DE010E9489086BE271E0FD
:100340008091DD019091DE010E942E0865E070E051
:1003500080E090E00E94DB046AE070E080E090E0E2
:100360000E94DB0461E08CEA91E00E9409048CEABF
:1003700091E00E94C60364E371E08091DD019091F9
:10038000DE010E942E086BE271E08091DD01909108
:10039000DE010E942E0865E070E080E090E00E949F
:1003A000DB046AE070E080E090E00E94DB0462E041
:1003B0008CEA91E00E9409040E94AC04CD5BDE4F00
:1003C000688379838A839B83C354D140212C312C49
:1003D000812C912C5401240135010E94AC04CD5B89
:1003E000DE4FC880D980EA80FB80C354D1406C19AD
:1003F0007D098E099F09603D77408105910508F0D0
:1004000035C180E00E944105BC01882777FD8095B9
:10041000982F0E94710920E030E040EA50E40E94E9
:10042000700A20E030E040E85AE30E94700A23E3BB
:1004300033E343ED5FE30E949E086B017C0120E003
:1004400030E0A9010E94210A181624F0F7FAF0946E
:10045000F7F8F094209108013091090140910A01C8
:1004600050910B01C701B6010E9407090E94250A9D
:1004700020E030E040EA51E40E94700A6B017C0108
:100480009E012F5F3F4FCF5BDE4F39832883C154DE
:10049000D14000E010E060910C0170910D018827BF
:1004A00077FD8095982F0E9471099B01AC01C701CF
:1004B000B6010E94030987FF8FC081E00E944105B9
:1004C000BC01882777FD8095982F0E94710920E054
:1004D00030E040EA50E40E94700A20E030E040E85A
:1004E0005AE30E94700A23E333E343ED5FE30E9483
:1004F0009E086B017C0120E030E0A9010E94210AE6
:10050000181624F0F7FAF094F7F8F0942091080107
:100510003091090140910A0150910B01C701B601C8
:100520000E9407090E94250A20E030E040EA51E4D9
:100530000E94700ACF5BDE4FE881F981C154D1403F
:100540006193719381939193CF5BDE4FF983E8833D
:10055000C154D14080E00E944105BC01882777FD4D
:100560008095982F0E94710920E030E040EA50E425
:100570000E94700A20E030E040E85AE30E94700ACE
:1005800023E333E343ED5FE30E949E086B017C01AC
:1005900020E030E0A9010E94210A181624F0F7FAA1
:1005A000F094F7F8F09420910801309109014091FE
:1005B0000A0150910B01C701B6010E9407090E9470
:1005C000250A20E030E040EA51E40E94700A6B0105
:1005D0007C010F5F1F4F5FCFFFEF2F1A3F0A9E0175
:1005E0002F5F3F4F6901E12CF12CE016F10601F17C
:1005F000F60161917191819191916F0120E030E05C
:1006000040E251E40E9407099B01AC0160E070E008
:1006100080E291E40E94D30A9B01AC01C301B201C4
:100620000E949F082B013C01FFEFEF1AFF0ADDCF6C
:1006300081E090E0B7010E94F30B80E090E00E941F
:100640006F09A30192010E94700A0E94250A20E00E
:1006500030E040E251E40E94700A9B01AC01C50108
:10066000B4010E949F084B015C01B7CEB10180E04C
:1006700090E00E946F099B01AC01C501B4010E948A
:1006800007096B017C018090040190900501A09006
:100690000601B0900701A50194010E9403091816F4
:1006A00034F061E08BE00E94C00560E01BC0A50152
:1006B0009401C701B6010E94210A1816C4F42091C2
:1006C0000001309101014091020150910301C701E5
:1006D000B6010E940309181654F060E08BE00E94F6
:1006E000C00561E08CE00E94C00560E009C060E0E8
:1006F0008BE00E94C00560E08CE00E94C00561E0D4
:100700008DE0CA5BDE4F0FB6F894DEBF0FBECDBFE3
:10071000DF91CF911F910F91FF90EF90DF90CF90DD
:10072000BF90AF909F908F907F906F905F904F9011
:100730003F902F900C94C0050C94AC040F931F9322
:10074000CF93DF93EC01662359F00E94AC046983D8
:100750007A838B839C83DF91CF911F910F910895B2
:100760000E94AC0409811A812B813C81601B710BB2
:10077000820B930B623371058105910530F763E0BD
:1007800070E080E090E00E94DB04EACF60E00C942F
:100790009E03FC0113AA14AA15AA16AA118212829A
:1007A00013821482411551056105710521F0CB01B9
:1007B000BA010C94DB040895FB01BA01A901DC0124
:1007C000D296FC93EE93D19726E0CF010C94D906F4
:1007D0001F93CF93DF93EC01162F6CE371E089A98F
:1007E0009AA90E942E084AE050E0612F89A99AA98F
:1007F0000E94960863E471E089A99AA90E942E08D4
:1008000062E370E080E090E0DF91CF911F910C9463
:10081000DB041F93CF93DF93EC01162F8D81882388
:1008200089F189A99AA9DC01ED91FC910480F581F7
:10083000E02D0995892BA9F307C02637310519F159
:100840002835310509F41D8289A99AA9DC01ED91A9
:10085000FC910480F581E02D09951816190694F491
:1008600089A99AA9DC01ED91FC910680F781E02D20
:1008700009959C01332723363105F9F6612FCE0106
:100880000E94E80383E6DF91CF911F9108950F93B3
:100890001F93CF93DF931F92CDB7DEB78C016623F2
:1008A00049F081E0F801858360E0C80149830E9436
:1008B00009044981F80145830F90DF91CF911F9181
:1008C0000F9108951F920F920FB60F9211242F933C
:1008D0003F938F939F93AF93BF938091E401909147
:1008E000E501A091E601B091E7013091E30123E039
:1008F000230F2D3720F40196A11DB11D05C026E858
:10090000230F0296A11DB11D2093E3018093E40102
:100910009093E501A093E601B093E7018091E8018F
:100920009091E901A091EA01B091EB010196A11D1E
:10093000B11D8093E8019093E901A093EA01B0937F
:10094000EB01BF91AF919F918F913F912F910F90AC
:100950000FBE0F901F9018952FB7F8946091E40187
:100960007091E5018091E6019091E7012FBF089514
:100970003FB7F8948091E8019091E901A091EA01D4
:10098000B091EB0126B5A89B05C02F3F19F0019649
:10099000A11DB11D3FBF6627782F892F9A2F620FA7
:1009A000711D811D911D42E0660F771F881F991FE1
:1009B0004A95D1F70895CF92DF92EF92FF92CF93AD
:1009C000DF936B017C010E94B804EB01C114D104D8
:1009D000E104F10489F00E949D080E94B8046C1B98
:1009E0007D0B683E734090F381E0C81AD108E1089E
:1009F000F108C851DC4FEACFDF91CF91FF90EF9023
:100A0000DF90CF900895789484B5826084BD84B5DA
:100A1000816084BD85B5826085BD85B5816085BDF9
:100A2000EEE6F0E0808181608083E1E8F0E0108212
:100A3000808182608083808181608083E0E8F0E053
:100A4000808181608083E1EBF0E08081846080833D
:100A5000E0EBF0E0808181608083EAE7F0E0808174
:100A600084608083808182608083808181608083D4
:100A70008081806880831092C100089580930E0168
:100A800008958E3008F08E50877020910E0190E40A
:100A9000299F90011124822B80937C0080917A0001
:100AA000806480937A0080917A0086FDFCCF8091EB
:100AB00078002091790090E0922B0895833081F0A6
:100AC00028F4813099F08230A1F008958730A9F0A0
:100AD0008830B9F08430D1F4809180008F7D03C0DC
:100AE000809180008F7780938000089584B58F7700
:100AF00002C084B58F7D84BD08958091B0008F774A
:100B000003C08091B0008F7D8093B0000895CF9393
:100B1000DF9390E0FC01E250FF4F2491FC01EE5E78
:100B2000FE4F8491882349F190E0880F991FFC01C2
:100B3000E05DFE4FA591B4918A5D9E4FFC01C59189
:100B4000D4919FB7611108C0F8948C9120958223AD
:100B50008C93888182230AC0623051F4F8948C917E
:100B6000322F309583238C938881822B888304C015
:100B7000F8948C91822B8C939FBFDF91CF91089535
:100B80000F931F93CF93DF931F92CDB7DEB7282F1C
:100B900030E0F901E651FF4F8491F901E250FF4F37
:100BA0001491F901EE5EFE4F04910023C9F08823F1
:100BB00021F069830E945E056981E02FF0E0EE0F6D
:100BC000FF1FEA5DFE4FA591B4919FB7F8948C91F9
:100BD000611103C01095812301C0812B8C939FBFAD
:100BE0000F90DF91CF911F910F910895FC01818D9E
:100BF000228D90E0805C9F4F821B91098F73992713
:100C00000895FC01918D828D981731F0828DE80F47
:100C1000F11D858D90E008958FEF9FEF0895FC0101
:100C2000918D828D981761F0828DDF01A80FB11D23
:100C30005D968C91928D9F5F9F73928F90E0089547
:100C40008FEF9FEF089583E997E0892B49F080E0CB
:100C500090E0892B29F00E94930781110C940000E9
:100C60000895FC01848DDF01A80FB11DA35ABF4F69
:100C70002C91848D90E001968F739927848FA6899B
:100C8000B7892C93A089B1898C9180648C93938DC2
:100C9000848D981306C00288F389E02D80818F7DB2
:100CA00080830895CF93DF93EC01888D8823C9F06A
:100CB000EA89FB89808185FD05C0A889B9898C9165
:100CC00086FD0FC00FB607FCF5CF808185FFF2CF00
:100CD000A889B9898C9185FFEDCFCE010E9431069C
:100CE000E7CFDF91CF910895CF92DF92FF920F93DC
:100CF0001F93CF93DF931F92CDB7DEB76C0181E0D6
:100D0000D60158968C9358975B969C915B975C960E
:100D10008C915C97981307C05096ED91FC91519778
:100D2000808185FD2EC0F601038D10E00F5F1F4FFF
:100D30000F731127F02EF601848DF81211C00FB633
:100D400007FCF9CFD6015096ED91FC915197808127
:100D500085FFF1CFC60169830E9431066981EBCF1F
:100D6000838DE80FF11DE35AFF4F6083D6015B9638
:100D70000C935B975296ED91FC9153978081806222
:100D80000CC0D6015696ED91FC9157976083509612
:100D9000ED91FC91519780818064808381E090E0A7
:100DA0000F90DF91CF911F910F91FF90DF90CF9027
:100DB0000895BF92CF92DF92EF92FF92CF93DF938D
:100DC000EC016A017B01B22EE889F98982E0808317
:100DD000411581EE580761057105A1F060E079E0E9
:100DE0008DE390E0A70196010E94070C2150310984
:100DF000410951095695479537952795211580E169
:100E0000380798F0E889F989108260E874E88EE183
:100E100090E0A70196010E94070C21503109410979
:100E200051095695479537952795EC85FD85308373
:100E3000EE85FF852083188EEC89FD89B082EA89D2
:100E4000FB89808180618083EA89FB898081886059
:100E50008083EA89FB89808180688083EA89FB89B5
:100E600080818F7D8083DF91CF91FF90EF90DF9025
:100E7000CF90BF9008951F920F920FB60F9211243A
:100E80002F938F939F93EF93FF93E091FC01F09149
:100E9000FD018081E0910202F091030282FD12C007
:100EA0009081809105028F5F8F73209106028217D7
:100EB00051F0E0910502F0E0E451FE4F958F8093F0
:100EC000050201C08081FF91EF919F918F912F9139
:100ED0000F900FBE0F901F9018951F920F920FB694
:100EE0000F9211242F933F934F935F936F937F93B0
:100EF0008F939F93AF93BF93EF93FF938CEE91E00B
:100F00000E943106FF91EF91BF91AF919F918F9118
:100F10007F916F915F914F913F912F910F900FBEF5
:100F20000F901F9018958CEE91E00E94F60521E03D
:100F3000892B09F420E0822F08951092EF0110927E
:100F4000EE0188EE93E0A0E0B0E08093F001909392
:100F5000F101A093F201B093F30188E991E090933D
:100F6000ED018093EC0185EC90E09093F901809382
:100F7000F80184EC90E09093FB018093FA0180ECFF
:100F800090E09093FD018093FC0181EC90E09093C0
:100F9000FF018093FE0182EC90E090930102809328
:100FA000000286EC90E0909303028093020210927C
:100FB000050210920602109207021092080208958C
:100FC00008950E9403050E94E0070E94C800C3E242
:100FD000D6E00E9416012097E1F30E942306F9CF84
:100FE000CF92DF92EF92FF920F931F93CF93DF93F5
:100FF0007C016A01EB0100E010E00C151D0571F0A9
:101000006991D701ED91FC910190F081E02DC7012C
:101010000995892B19F00F5F1F4FEFCFC801DF91A2
:10102000CF911F910F91FF90EF90DF90CF90089597
:101030006115710581F0DB010D900020E9F7AD012C
:1010400041505109461B570BDC01ED91FC91028088
:10105000F381E02D099480E090E008950C94180845
:101060008F929F92AF92BF92CF92DF92EF92FF92B8
:101070000F931F93CF93DF93CDB7DEB7A1970FB632
:10108000F894DEBF0FBECDBF7C01C42EE52FCB018F
:10109000D22E19A221E02D1510F02AE0D22E8E01B9
:1010A0000F5D1F4F8D2C912CA12CB12C6C2D7E2F00
:1010B000A50194010E94070C8C2DD29E8019112449
:1010C000015011098A3014F4805D01C0895CF80177
:1010D0008083211531054105510521F0C22EE32FF2
:1010E000CA01E4CFB801C7010E941808A1960FB643
:1010F000F894DEBF0FBECDBFDF91CF911F910F914E
:10110000FF90EF90DF90CF90BF90AF909F908F9027
:1011100008952115310541F4DC01ED91FC91019018
:10112000F081E02D642F09940C9430089A01462F29
:1011300050E060E070E00C94890808955058BB2797
:10114000AA270ED044C135D130F03AD120F031F485
:101150009F3F11F41EF42AC10EF4E095E7FB20C175
:10116000E92F46D180F3BA17620773078407950702
:1011700018F071F49EF55EC10EF4E0950B2EBA2FB7
:10118000A02D0B01B90190010C01CA01A00111248D
:10119000FF27591B99F0593F50F4503E68F11A1639
:1011A000F040A22F232F342F4427585FF3CF4695CA
:1011B00037952795A795F0405395C9F77EF41F16EC
:1011C000BA0B620B730B840BBAF09150A1F0FF0FB6
:1011D000BB1F661F771F881FC2F70EC0BA0F621FA2
:1011E000731F841F48F4879577956795B795F79592
:1011F0009E3F08F0B3CF9395880F08F09927EE0F24
:10120000979587950895A8D008F481E008950CD0AB
:10121000DEC0D6D040F0CDD030F021F45F3F19F0E1
:10122000BFC0511108C1C2C0E3D098F39923C9F3DC
:101230005523B1F3951B550BBB27AA2762177307DC
:10124000840738F09F5F5F4F220F331F441FAA1F90
:10125000A9F333D00E2E3AF0E0E830D09150504050
:10126000E695001CCAF729D0FE2F27D0660F771FFE
:10127000881FBB1F261737074807AB07B0E809F0E0
:10128000BB0B802DBF01FF2793585F4F2AF09E3F75
:10129000510568F085C0CFC05F3FECF3983EDCF3AA
:1012A000869577956795B795F7959F5FC9F7880FEE
:1012B000911D9695879597F90895E1E0660F771F40
:1012C000881FBB1F621773078407BA0720F0621BD1
:1012D000730B840BBA0BEE1F88F7E0950895E89422
:1012E00009C097FB3EF490958095709561957F4F6E
:1012F0008F4F9F4F9923A9F0F92F96E9BB2793951C
:10130000F695879577956795B795F111F8CFFAF42B
:10131000BB0F11F460FF1BC06F5F7F4F8F4F9F4F5C
:1013200016C0882311F096E911C0772321F09EE8BA
:10133000872F762F05C0662371F096E8862F70E020
:1013400060E02AF09A95660F771F881FDAF7880FFA
:101350009695879597F90895990F0008550FAA0B50
:10136000E0E8FEEF16161706E807F907C0F01216B8
:101370001306E407F50798F0621B730B840B950BBB
:1013800039F40A2661F0232B242B252B21F4089510
:101390000A2609F4A140A6958FEF811D811D0895AD
:1013A00097F99F6780E870E060E008959FEF80EC18
:1013B000089500240A9416161706180609060895BB
:1013C00000240A9412161306140605060895092E21
:1013D0000394000C11F4882352F0BB0F40F4BF2B90
:1013E00011F460FF04C06F5F7F4F8F4F9F4F0895D0
:1013F00057FD9058440F551F59F05F3F71F04795C6
:10140000880F97FB991F61F09F3F79F087950895AA
:10141000121613061406551FF2CF4695F1DF08C0C9
:10142000161617061806991FF1CF869571056105E6
:1014300008940895E894BB2766277727CB0197F98E
:1014400008958ADF08F48FEF08950AD029ED3BE56F
:101450004EED5EE345C00EF023C1A8CF6894A0CF47
:10146000CFDFC8F39923D1F3C6F3DF93CF931F9354
:101470000F93FF92C92FDD2788232AF02197660F4B
:10148000771F881FDAF720E030E040E85FEB9FE34A
:10149000883920F0803E30F021968F7750DEE8E6E4
:1014A000F0E003C04CDEE5E9F0E008D18B01BE01BD
:1014B000EC01FB2E6F5771097595771F880B990BFF
:1014C00010DF28E132E741E35FE316D0AF2D98014A
:1014D000AE01FF900F911F91CF91DF9141DE77CF49
:1014E0000BD075CF66DF28F06BDF18F0952309F07D
:1014F00057CF5CCF11249FCF7BDFA0F3959FD1F313
:10150000950F50E0551F629FF001729FBB27F00DB1
:10151000B11D639FAA27F00DB11DAA1F649F662706
:10152000B00DA11D661F829F2227B00DA11D621F55
:10153000739FB00DA11D621F839FA00D611D221F0F
:10154000749F3327A00D611D231F849F600D211DF3
:10155000822F762F6A2F11249F5750408AF0E1F096
:1015600088234AF0EE0FFF1FBB1F661F771F881FDF
:1015700091505040A9F79E3F510570F011CF5BCFBD
:101580005F3FECF3983EDCF3869577956795B795CA
:10159000F795E7959F5FC1F7FE2B880F911D9695F4
:1015A000879597F90895FA01EE0FFF1F30962105F0
:1015B000310599F16115710561F48038BFE39B072E
:1015C00049F168949038810561F08038BFEF9B073E
:1015D00041F0992342F5FF3FE1053105210511F165
:1015E000E8940894E795D901AA2329F4AB2FBE2FDC
:1015F000F85FD0F310C0FF5F70F4A695E0F7F739FD
:1016000050F019F0FF3A38F49F779F930CD00F9069
:1016100007FC905808953EF0C9CE60E070E080E885
:101620009FE308954FE79F775F934F933F932F93E7
:1016300017DF2F913F914F915F9152DF05C019F451
:101640000EF0AECEF7CEB2CEDBDEC8F39638C0F7E2
:1016500007F80F92E8942BE33AEA48EB5FE74EDF96
:101660000F920F920F924DB75EB70F9289D0E2ECB6
:10167000F0E024D04F915F91EF91FF91E595EE1F3F
:10168000FF1F49F0FE57E0684427EE0F441FFA950C
:10169000E1F74195550B40D00F9007FE34C00895F7
:1016A0009F3F31F0915020F4879577956795B795D6
:1016B000880F911D9695879597F90895DF93CF939D
:1016C0001F930F93FF92EF92DF927B018C0168943E
:1016D00005C0DA2EEF0110DFFE01E894A5912591F7
:1016E000359145915591AEF3EF013ADDFE01970139
:1016F000A801DA9479F7DF90EF90FF900F911F9196
:10170000CF91DF9108959B01AC0160E070E080E82B
:101710009FE37DCD45CEC4CF73DEE8F39923D9F3A3
:10172000940F511DBBF39150504094F059F0882311
:1017300032F0660F771F881F91505040C1F79E3FCF
:10174000510544F7880F911D9695879597F908954F
:101750005F3FACF0983E9CF0BB27869577956795E8
:10176000B79508F4B1609395C1F7BB0F58F711F422
:1017700060FFE8CF6F5F7F4F8F4F9F4FE3CF5BCE10
:10178000FA01DC01AA0FBB1F9B01AC01BF5728F473
:1017900022273327442750781FC0B75188F4AB2F36
:1017A0000024469537952795011CA395D2F3002078
:1017B00069F0220F331F441FB395DAF30DD0BECC6E
:1017C00061307105A0E88A07B94630F49B01AC018D
:1017D0006627772788279078309621F020833183F9
:1017E000428353830895AA1BBB1B51E107C0AA1F64
:1017F000BB1FA617B70710F0A61BB70B881F991FB2
:101800005A95A9F780959095BC01CD010895A1E264
:101810001A2EAA1BBB1BFD010DC0AA1FBB1FEE1F6A
:10182000FF1FA217B307E407F50720F0A21BB30BB5
:10183000E40BF50B661F771F881F991F1A9469F731
:1018400060957095809590959B01AC01BD01CF018D
:101850000895EE0FFF1F0590F491E02D0994F89480
:02186000FFCFB8
:10186200000018420000F041BD370636102701562D
:101872004D4450565F317C315F564D4450560D0AEF
:1018820000564D4450455F31007C005F564D445038
:10189200450D0A00564D4450455F3200564D4450A6
:1018A200435F005F564D4450430D0A004572726F0C
:1018B200723A20417474656D707420746F20736580
:1018C20074206120726561642D6F6E6C792076617F
:1018D200726961626C65206F722064617461207448
:1018E200797065206E6F7420737570706F72746595
:1018F200640D0A00000000007406F007F6050F06EA
:041902000106520682
:00000001FF
