:100000000C949E000C94C6000C94C6000C94C60080
:100010000C94C6000C94C6000C94C6000C94C60048
:100020000C94C6000C94C6000C94C6000C94C60038
:100030000C94C6000C94C6000C94C6000C94C60028
:100040000C9439040C94C6000C9412070C944407C9
:100050000C94C6000C94C6000C94C6000C94C60008
:100060000C94C6000C94C60008000000BE922449FF
:10007000123EABAAAA2ABECDCCCC4C3E00000080DA
:10008000BEABAAAAAA3E00000000BF000000803F4D
:100090000000000000084178D3BB4387D1133D190D
:1000A0000E3CC3BD4282AD2B3E68EC8276BED98F3A
:1000B000E1A93E4C80EFFFBE01C4FF7F3F0000007E
:1000C000000007634236B79BD8A71A39685618AEA6
:1000D000BAAB558C1D3CB7CC5763BD6DEDFD753E7D
:1000E000F6177231BF000000803F000000080002D8
:1000F00001000003040700000000000000000102EE
:1001000004081020408001020408102001020408A5
:100110001020040404040404040402020202020283
:1001200003030303030300000000250028002B0045
:1001300000000000240027002A00740711241FBEBD
:10014000CFEFD8E0DEBFCDBF11E0A0E0B1E0E8E343
:10015000F8E102C005900D92A239B107D9F724E069
:10016000A2E9B1E001C01D92AF3FB207E1F711E093
:10017000CCE3D1E004C02297FE010E94160CCA33E2
:10018000D107C9F70E94B8070C941A0C0C94000010
:1001900040ED57E060E070E082E294E00E94A0034E
:1001A00020E835E240E050E062E674E082E294E06C
:1001B0000E94B30382E294E00E949D0365E071E037
:1001C00080915304909154040E9405086AE070E005
:1001D00080E090E00E94B20441E060E082E294E0BE
:1001E0000E941E0426E040E855E260E070E082E6EE
:1001F00094E00E94B00661E08BE00E945E0561E041
:100200008CE00E945E0561E08DE00E945E0561E089
:100210008BE00E94970561E08CE00E94970561E009
:100220008DE00E94970581E00C9415052F923F9276
:100230004F925F926F927F928F929F92AF92BF92F6
:10024000CF92DF92EF92FF920F931F93CF93DF93A2
:10025000CDB7DEB760970FB6F894DEBF0FBECDBF47
:100260000E948304672B682B692B41F40E9483044E
:10027000623071058105910508F478C082E294E04E
:100280000E94730360931A0470931B0480931C04F0
:1002900090931D0400911E0410911F0420912004CE
:1002A00030912104601771078207930740F460932F
:1002B0001E0470931F0480932004909321040091E6
:1002C0001E0410911F0420912004309121042B0161
:1002D0003C01401A510A620A730A930182010A3FE3
:1002E00011052105310508F441C060931E04709387
:1002F0001F04809320049093210482E294E00E94E2
:100300009D0367E171E080915304909154040E9431
:1003100005086FE171E080915304909154040E94AC
:1003200005080E948304AB01BC012AE030E0809103
:100330005304909154040E94600861E271E080913E
:100340005304909154040E94050865E070E080E039
:1003500090E00E94B2046AE070E080E090E00E94C9
:10036000B20461E082E294E00E94E0030E94830410
:100370006D877E878F87988B22E931E03C872B87BA
:1003800042ED52E05A8749871D821E821F821886DD
:1003900019821A821B821C82212C312C0E94830418
:1003A0004D845E846F84788864197509860997097D
:1003B000603D77408105910508F019C180E00E94F9
:1003C0001805BC01882777FD8095982F0E94480961
:1003D0006093160470931704809318049093190483
:1003E00020E030E040EA50E40E94470A20E030E09C
:1003F00040E85AE30E94470A23E333E343ED5FE317
:100400000E9475082B013C0120E030E0A9010E9408
:10041000F809181624F077FA709477F8709481E050
:100420000E941805BC01882777FD8095982F0E94AF
:1004300048096093120470931304809314049093FA
:10044000150420E030E040EA50E40E94470A20E032
:1004500030E040E85AE30E94470A23E333E343EDE8
:100460005FE30E9475086B017C0120E030E0A90188
:100470000E94F809181624F0F7FAF094F7F8F094AF
:100480008090000190900101A0900201B0900301C2
:10049000A5019401C301B2010E94DE080E94FC097B
:1004A00020E030E040EA51E40E94470AE985FA85FD
:1004B0006193719381939193FA87E987A5019401E0
:1004C000C701B6010E94DE080E94FC0920E030E06E
:1004D00040EA51E40E94470AEB85FC8561937193E1
:1004E00081939193FC87EB8702ED12E082E9C82E9D
:1004F00081E0D82EE12CF12CE214F3040CF044C07E
:10050000F60161917191819191916F0120E030E04C
:1005100040E251E40E94DE089B01AC0160E070E023
:1005200080E291E40E94AA0A9B01AC0169817A8170
:100530008B819C810E94760869837A838B839C835C
:10054000F80161917191819191918F0120E030E0EA
:1005500040E251E40E94DE089B01AC0160E070E0E3
:1005600080E291E40E94AA0A9B01AC016D817E8128
:100570008F8198850E9476086D837E838F8398870C
:10058000FFEFEF1AFF0AB8CF81E090E0B1010E94BF
:10059000CA0B882777FD8095982F0E9448096B0128
:1005A0007C012D813E814F8158850E94470A0E941F
:1005B000FC0920E030E040E251E40E94470A4B0190
:1005C0005C0129813A814B815C81C701B6010E949F
:1005D000470A0E94FC0920E030E040E251E40E941A
:1005E000470A6B017C012FEF221A320AD7CEA701EE
:1005F0009601C501B4010E9475086B017C0120E0E1
:1006000030E040EF51E40E94F80918160CF452C093
:1006100020E030E040EF51E4C701B6010E94DA0863
:10062000181634F061E08BE00E94970560E019C075
:1006300020E030E048E152E4C701B6010E94F80929
:100640001816A4F420E030E044E352E4C701B601F8
:100650000E94DA08181654F060E08BE00E949705BB
:1006600061E08CE00E94970560E009C060E08BE0EB
:100670000E94970560E08CE00E94970561E08DE0A4
:1006800060960FB6F894DEBF0FBECDBFDF91CF915D
:100690001F910F91FF90EF90DF90CF90BF90AF90A0
:1006A0009F908F907F906F905F904F903F902F9092
:1006B0000C94970560960FB6F894DEBF0FBECDBFC1
:1006C000DF91CF911F910F91FF90EF90DF90CF902E
:1006D000BF90AF909F908F907F906F905F904F9062
:1006E0003F902F9008950C9483040F931F93CF9302
:1006F000DF93EC01662359F00E94830469837A83B7
:100700008B839C83DF91CF911F910F9108950E945D
:10071000830409811A812B813C81601B710B820B40
:10072000930B623371058105910530F763E070E04A
:1007300080E090E00E94B204EACF60E00C94750380
:10074000FC0113AA14AA15AA16AA118212821382F6
:100750001482411551056105710521F0CB01BA01E3
:100760000C94B2040895FB01BA01A901DC01D296F0
:10077000FC93EE93D19726E0CF010C94B0061F9323
:10078000CF93DF93EC01162F6AE271E089A99AA951
:100790000E9405084AE050E0612F89A99AA90E94A9
:1007A0006D0861E371E089A99AA90E94050862E3D6
:1007B00070E080E090E0DF91CF911F910C94B20443
:1007C0001F93CF93DF93EC01162F8D81882389F13E
:1007D00089A99AA9DC01ED91FC910480F581E02DB5
:1007E0000995892BA9F307C02637310519F128355A
:1007F000310509F41D8289A99AA9DC01ED91FC91CA
:100800000480F581E02D09951816190694F489A93C
:100810009AA9DC01ED91FC910680F781E02D099504
:100820009C01332723363105F9F6612FCE010E9452
:10083000BF0383E6DF91CF911F9108950F931F931C
:10084000CF93DF931F92CDB7DEB78C01662349F0BB
:1008500081E0F801858360E0C80149830E94E003DC
:100860004981F80145830F90DF91CF911F910F913E
:1008700008951F920F920FB60F9211242F933F935A
:100880008F939F93AF93BF9380915A0490915B0491
:10089000A0915C04B0915D043091590423E0230FD2
:1008A0002D3720F40196A11DB11D05C026E8230FA8
:1008B0000296A11DB11D2093590480935A04909370
:1008C0005B04A0935C04B0935D0480915E049091FE
:1008D0005F04A0916004B09161040196A11DB11D57
:1008E00080935E0490935F04A0936004B0936104CE
:1008F000BF91AF919F918F913F912F910F900FBE1C
:100900000F901F9018952FB7F89460915A0470912A
:100910005B0480915C0490915D042FBF08953FB704
:10092000F89480915E0490915F04A0916004B0916E
:10093000610426B5A89B05C02F3F19F00196A11DA3
:10094000B11D3FBF6627782F892F9A2F620F711D27
:10095000811D911D42E0660F771F881F991F4A95E0
:10096000D1F70895CF92DF92EF92FF92CF93DF936A
:100970006B017C010E948F04EB01C114D104E104DE
:10098000F10489F00E9474080E948F046C1B7D0B97
:10099000683E734090F381E0C81AD108E108F1087D
:1009A000C851DC4FEACFDF91CF91FF90EF90DF90FD
:1009B000CF900895789484B5826084BD84B58160B9
:1009C00084BD85B5826085BD85B5816085BDEEE657
:1009D000F0E0808181608083E1E8F0E01082808136
:1009E00082608083808181608083E0E8F0E08081A4
:1009F00081608083E1EBF0E0808184608083E0EBC4
:100A0000F0E0808181608083EAE7F0E080818460AB
:100A10008083808182608083808181608083808107
:100A2000806880831092C100089580930401089526
:100A30008E3008F08E5087702091040190E4299F39
:100A400090011124822B80937C0080917A00806435
:100A500080937A0080917A0086FDFCCF80917800A7
:100A60002091790090E0922B0895833081F028F452
:100A7000813099F08230A1F008958730A9F0883054
:100A8000B9F08430D1F4809180008F7D03C08091D3
:100A900080008F7780938000089584B58F7702C09F
:100AA00084B58F7D84BD08958091B0008F7703C099
:100AB0008091B0008F7D8093B0000895CF93DF9335
:100AC00090E0FC01E250FF4F2491FC01EE5EFE4FEE
:100AD0008491882349F190E0880F991FFC01E05D23
:100AE000FE4FA591B4918A5D9E4FFC01C591D491B2
:100AF0009FB7611108C0F8948C91209582238C9344
:100B0000888182230AC0623051F4F8948C91322F8C
:100B1000309583238C938881822B888304C0F8943A
:100B20008C91822B8C939FBFDF91CF9108950F936F
:100B30001F93CF93DF931F92CDB7DEB7282F30E0FE
:100B4000F901E651FF4F8491F901E250FF4F1491F2
:100B5000F901EE5EFE4F04910023C9F0882321F0D5
:100B600069830E9435056981E02FF0E0EE0FFF1FD9
:100B7000EA5DFE4FA591B4919FB7F8948C916111F5
:100B800003C01095812301C0812B8C939FBF0F90D0
:100B9000DF91CF911F910F910895FC01818D228DDE
:100BA00090E0805C9F4F821B91098F739927089575
:100BB000FC01918D828D981731F0828DE80FF11D27
:100BC000858D90E008958FEF9FEF0895FC01918D42
:100BD000828D981761F0828DDF01A80FB11D5D969F
:100BE0008C91928D9F5F9F73928F90E008958FEF0D
:100BF0009FEF08958AE697E0892B49F080E090E026
:100C0000892B29F00E946A0781110C940000089535
:100C1000FC01848DDF01A80FB11DA35ABF4F2C9199
:100C2000848D90E001968F739927848FA689B78968
:100C30002C93A089B1898C9180648C93938D848D41
:100C4000981306C00288F389E02D80818F7D808310
:100C50000895CF93DF93EC01888D8823C9F0EA894A
:100C6000FB89808185FD05C0A889B9898C9186FDA5
:100C70000FC00FB607FCF5CF808185FFF2CFA889A2
:100C8000B9898C9185FFEDCFCE010E940806E7CF90
:100C9000DF91CF910895CF92DF92FF920F931F9330
:100CA000CF93DF931F92CDB7DEB76C0181E0D60101
:100CB00058968C9358975B969C915B975C968C9119
:100CC0005C97981307C05096ED91FC9151978081E5
:100CD00085FD2EC0F601038D10E00F5F1F4F0F73CF
:100CE0001127F02EF601848DF81211C00FB607FC03
:100CF000F9CFD6015096ED91FC915197808185FFF7
:100D0000F1CFC60169830E9408066981EBCF838D0C
:100D1000E80FF11DE35AFF4F6083D6015B960C93F9
:100D20005B975296ED91FC915397808180620CC045
:100D3000D6015696ED91FC91579760835096ED91B0
:100D4000FC91519780818064808381E090E00F90D6
:100D5000DF91CF911F910F91FF90DF90CF90089579
:100D6000BF92CF92DF92EF92FF92CF93DF93EC018D
:100D70006A017B01B22EE889F98982E080834115FE
:100D800081EE580761057105A1F060E079E08DE31F
:100D900090E0A70196010E94DE0B21503109410924
:100DA00051095695479537952795211580E13807C4
:100DB00098F0E889F989108260E874E88EE190E0A3
:100DC000A70196010E94DE0B21503109410951090A
:100DD0005695479537952795EC85FD853083EE85AB
:100DE000FF852083188EEC89FD89B082EA89FB8912
:100DF000808180618083EA89FB898081886080832B
:100E0000EA89FB89808180688083EA89FB89808107
:100E10008F7D8083DF91CF91FF90EF90DF90CF9017
:100E2000BF9008951F920F920FB60F9211242F9327
:100E30008F939F93EF93FF93E0917204F09173046B
:100E40008081E0917804F091790482FD12C0908154
:100E500080917B048F5F8F7320917C04821751F007
:100E6000E0917B04F0E0EE59FB4F958F80937B047B
:100E700001C08081FF91EF919F918F912F910F90F1
:100E80000FBE0F901F9018951F920F920FB60F92E2
:100E900011242F933F934F935F936F937F938F937F
:100EA0009F93AF93BF93EF93FF9382E694E00E94EA
:100EB0000806FF91EF91BF91AF919F918F917F9124
:100EC0006F915F914F913F912F910F900FBE0F90B7
:100ED0001F90189582E694E00E94CD0521E0892BB1
:100EE00009F420E0822F08951092650410926404A2
:100EF00088EE93E0A0E0B0E08093660490936704EE
:100F0000A0936804B093690486E891E09093630429
:100F10008093620485EC90E090936F0480936E045C
:100F200084EC90E0909371048093700480EC90E0E6
:100F3000909373048093720481EC90E09093750415
:100F40008093740482EC90E090937704809376040D
:100F500086EC90E0909379048093780410927B045F
:100F600010927C0410927D0410927E0408950895DE
:100F70000E94DA040E94B7070E94C800CAEFD5E0B9
:100F80000E9416012097E1F30E94FA05F9CFCF9253
:100F9000DF92EF92FF920F931F93CF93DF937C0129
:100FA0006A01EB0100E010E00C151D0571F069917C
:100FB000D701ED91FC910190F081E02DC7010995D9
:100FC000892B19F00F5F1F4FEFCFC801DF91CF9131
:100FD0001F910F91FF90EF90DF90CF9008956115D2
:100FE000710581F0DB010D900020E9F7AD01415062
:100FF0005109461B570BDC01ED91FC910280F381F6
:10100000E02D099480E090E008950C94EF078F9212
:101010009F92AF92BF92CF92DF92EF92FF920F9387
:101020001F93CF93DF93CDB7DEB7A1970FB6F89498
:10103000DEBF0FBECDBF7C01C42EE52FCB01D22E6B
:1010400019A221E02D1510F02AE0D22E8E010F5D9D
:101050001F4F8D2C912CA12CB12C6C2D7E2FA50116
:1010600094010E94DE0B8C2DD29E80191124015018
:1010700011098A3014F4805D01C0895CF801808315
:10108000211531054105510521F0C22EE32FCA017A
:10109000E4CFB801C7010E94EF07A1960FB6F894FC
:1010A000DEBF0FBECDBFDF91CF911F910F91FF909B
:1010B000EF90DF90CF90BF90AF909F908F9008956A
:1010C0002115310541F4DC01ED91FC910190F08195
:1010D000E02D642F09940C9407089A01462F50E0E4
:1010E00060E070E00C94600808955058BB27AA2770
:1010F0000ED044C135D130F03AD120F031F49F3FC9
:1011000011F41EF42AC10EF4E095E7FB20C1E92F8B
:1011100046D180F3BA17620773078407950718F062
:1011200071F49EF55EC10EF4E0950B2EBA2FA02D42
:101130000B01B90190010C01CA01A0011124FF2784
:10114000591B99F0593F50F4503E68F11A16F0407F
:10115000A22F232F342F4427585FF3CF469537957E
:101160002795A795F0405395C9F77EF41F16BA0B43
:10117000620B730B840BBAF09150A1F0FF0FBB1FF1
:10118000661F771F881FC2F70EC0BA0F621F731F3A
:10119000841F48F4879577956795B795F7959E3F97
:1011A00008F0B3CF9395880F08F09927EE0F979525
:1011B00087950895A8D008F481E008950CD0DEC08A
:1011C000D6D040F0CDD030F021F45F3F19F0BFC051
:1011D000511108C1C2C0E3D098F39923C9F3552334
:1011E000B1F3951B550BBB27AA276217730784071A
:1011F00038F09F5F5F4F220F331F441FAA1FA9F3D0
:1012000033D00E2E3AF0E0E830D091505040E695C1
:10121000001CCAF729D0FE2F27D0660F771F881F22
:10122000BB1F261737074807AB07B0E809F0BB0B11
:10123000802DBF01FF2793585F4F2AF09E3F510535
:1012400068F085C0CFC05F3FECF3983EDCF3869535
:1012500077956795B795F7959F5FC9F7880F911DAB
:101260009695879597F90895E1E0660F771F881F97
:10127000BB1F621773078407BA0720F0621B730B4A
:10128000840BBA0BEE1F88F7E0950895E89409C027
:1012900097FB3EF490958095709561957F4F8F4FA9
:1012A0009F4F9923A9F0F92F96E9BB279395F695BF
:1012B000879577956795B795F111F8CFFAF4BB0F3D
:1012C00011F460FF1BC06F5F7F4F8F4F9F4F16C0A1
:1012D000882311F096E911C0772321F09EE8872F2B
:1012E000762F05C0662371F096E8862F70E060E0E7
:1012F0002AF09A95660F771F881FDAF7880F969560
:10130000879597F90895990F0008550FAA0BE0E803
:10131000FEEF16161706E807F907C0F012161306B7
:10132000E407F50798F0621B730B840B950B39F4F7
:101330000A2661F0232B242B252B21F408950A265D
:1013400009F4A140A6958FEF811D811D089597F99D
:101350009F6780E870E060E008959FEF80EC08955B
:1013600000240A9416161706180609060895002484
:101370000A9412161306140605060895092E0394FE
:10138000000C11F4882352F0BB0F40F4BF2B11F472
:1013900060FF04C06F5F7F4F8F4F9F4F089557FDD1
:1013A0009058440F551F59F05F3F71F04795880FD3
:1013B00097FB991F61F09F3F79F08795089512166A
:1013C00013061406551FF2CF4695F1DF08C0161616
:1013D00017061806991FF1CF8695710561050894C7
:1013E0000895E894BB2766277727CB0197F90895DE
:1013F0008ADF08F48FEF08950AD029ED3BE54EED22
:101400005EE345C00EF023C1A8CF6894A0CFCFDF24
:10141000C8F39923D1F3C6F3DF93CF931F930F93B0
:10142000FF92C92FDD2788232AF02197660F771FA7
:10143000881FDAF720E030E040E85FEB9FE388396F
:1014400020F0803E30F021968F7750DEE8E6F0E025
:1014500003C04CDEE5E9F0E008D18B01BE01EC01F0
:10146000FB2E6F5771097595771F880B990B10DF4D
:1014700028E132E741E35FE316D0AF2D9801AE01DA
:10148000FF900F911F91CF91DF9141DE77CF0BD06D
:1014900075CF66DF28F06BDF18F0952309F057CF82
:1014A0005CCF11249FCF7BDFA0F3959FD1F3950FE5
:1014B00050E0551F629FF001729FBB27F00DB11DD8
:1014C000639FAA27F00DB11DAA1F649F6627B00D68
:1014D000A11D661F829F2227B00DA11D621F739F51
:1014E000B00DA11D621F839FA00D611D221F749F5F
:1014F0003327A00D611D231F849F600D211D822FA6
:10150000762F6A2F11249F5750408AF0E1F08823EC
:101510004AF0EE0FFF1FBB1F661F771F881F9150F9
:101520005040A9F79E3F510570F011CF5BCF5F3F50
:10153000ECF3983EDCF3869577956795B795F7952C
:10154000E7959F5FC1F7FE2B880F911D96958795B4
:1015500097F90895FA01EE0FFF1F30962105310526
:1015600099F16115710561F48038BFE39B0749F17A
:1015700068949038810561F08038BFEF9B0741F097
:10158000992342F5FF3FE1053105210511F1E8946A
:101590000894E795D901AA2329F4AB2FBE2FF85F51
:1015A000D0F310C0FF5F70F4A695E0F7F73950F064
:1015B00019F0FF3A38F49F779F930CD00F9007FCF7
:1015C000905808953EF0C9CE60E070E080E89FE357
:1015D00008954FE79F775F934F933F932F9317DFC4
:1015E0002F913F914F915F9152DF05C019F40EF09A
:1015F000AECEF7CEB2CEDBDEC8F39638C0F707F832
:101600000F92E8942BE33AEA48EB5FE74EDF0F9244
:101610000F920F924DB75EB70F9289D0E2ECF0E0D7
:1016200024D04F915F91EF91FF91E595EE1FFF1F41
:1016300049F0FE57E0684427EE0F441FFA95E1F7A2
:101640004195550B40D00F9007FE34C008959F3F41
:1016500031F0915020F4879577956795B795880F6D
:10166000911D9695879597F90895DF93CF931F93D2
:101670000F93FF92EF92DF927B018C01689405C07B
:10168000DA2EEF0110DFFE01E894A5912591359146
:1016900045915591AEF3EF013ADDFE019701A801A6
:1016A000DA9479F7DF90EF90FF900F911F91CF912F
:1016B000DF9108959B01AC0160E070E080E89FE35A
:1016C0007DCD45CEC4CF73DEE8F39923D9F3940FD3
:1016D000511DBBF39150504094F059F0882332F0E3
:1016E000660F771F881F91505040C1F79E3F5105EC
:1016F00044F7880F911D9695879597F908955F3F58
:10170000ACF0983E9CF0BB27869577956795B7958A
:1017100008F4B1609395C1F7BB0F58F711F460FF5F
:10172000E8CF6F5F7F4F8F4F9F4FE3CF5BCEFA01C4
:10173000DC01AA0FBB1F9B01AC01BF5728F4222775
:101740003327442750781FC0B75188F4AB2F0024AB
:10175000469537952795011CA395D2F3002069F093
:10176000220F331F441FB395DAF30DD0BECC613086
:101770007105A0E88A07B94630F49B01AC016627E1
:10178000772788279078309621F020833183428311
:101790005383089597FB072E16F4009407D077FD26
:1017A00009D00E94000C07FC05D03EF4909581956D
:1017B0009F4F0895709561957F4F0895A1E21A2E6D
:1017C000AA1BBB1BFD010DC0AA1FBB1FEE1FFF1FE5
:1017D000A217B307E407F50720F0A21BB30BE40B35
:1017E000F50B661F771F881F991F1A9469F760957C
:1017F0007095809590959B01AC01BD01CF01089536
:10180000AA1BBB1B51E107C0AA1FBB1FA617B70726
:1018100010F0A61BB70B881F991F5A95A9F7809542
:101820009095BC01CD010895EE0FFF1F0590F49136
:08183000E02D0994F894FFCFAC
:10183800BD37063601564D4450565F317C315F56F0
:101848004D4450560D0A00564D4450455F31007CBA
:10185800005F564D4450450D0A00564D4450435FB5
:10186800005F564D4450430D0A004572726F723A3C
:1018780020417474656D707420746F2073657420D2
:101888006120726561642D6F6E6C79207661726972
:1018980061626C65206F7220646174612074797074
:1018A80065206E6F7420737570706F727465640D47
:1018B8000A00000000004B06C707CD05E605D8055D
:0218C8002906EF
:00000001FF
